S0170000456C657661746F7250726F6A6563742E73726563F4
S11300000C9433000C94BC000C945B000C945B00C7
S11300100C945B000C945B000C945B000C945B00F0
S11300200C945B000C945B000C945B000C945B00E0
S11300300C945B000C945B000C945B000C945B00D0
S11300400C945B000C945B000C945B000C945B00C0
S11300500C945B00E000E500EA00EF00E000E5003E
S1130060EA00EF00310111241FBECFE5D8E0DEBF66
S1130070CDBF10E0A0E6B0E0E4E8F2E002C00590F5
S11300800D92A036B107D9F720E0A0E6B0E001C098
S11300901D92A836B207E1F710E0C3E3D0E004C034
S11300A02197FE010E943A01C233D107C9F70E9489
S11300B017010C9440010C940000E0E6F0E0805A33
S11300C09F4F21E0DC0112962C938081918101964F
S11300D0918380830895EF92FF920F931F93CF93A0
S11300E0DF93009160001091610010161106DCF599
S11300F09C01FC01E05AFF4FEC012497DF017901D8
S1130100AC01332394F012966C911297662369F034
S1130110015011091093610000936000F901E05A45
S1130120FF4F1282822F9F2D20C04430510584F44A
S11301306281662369F001501109109361000093F4
S11301406000FA01E05AFF4F1282842F952F0DC0F0
S1130150215031090196319611972C173D0779F6F4
S11301608AE090E002C089E090E0DF91CF911F9196
S11301700F91FF90EF9008951F920F920FB60F9278
S113018011242F933F934F935F936F937F938F9398
S11301909F93AF93BF93EF93FF93CF93DF931F92FC
S11301A0CDB7DEB789B38F708983E9818E2F90E054
S11301B088309105C0F4FC01E65DFF4F0C943A01D0
S11301C080E090E00E945D000EC081E090E00E941B
S11301D05D0009C082E090E00E945D0004C083E0FD
S11301E090E00E945D0080916600909167000E94FB
S11301F06B000F90DF91CF91FF91EF91BF91AF9181
S11302009F918F917F916F915F914F913F912F912A
S11302100F900FBE0F901F90189584B38E6084BB0F
S113022084B3806784BB8AB3847F8ABB08950E94A9
S11302300D018FEF87BB81E090E09093670080937E
S1130240660081E090E00E945D0082E090E00E9400
S11302505D0080916600909167000E946B0088BBEE
S1130260F0CFE0E6F0E01182108212821382148251
S113027015820895EE0FFF1F0590F491E02D099467
S1070280F894FFCF1C
S9030000FC
