:100000000C942A000C9441000C943F000C943F0087
:100010000C943F000C943F000C943F000C943F0064
:100020000C943F000C943F000C943F000C943F0054
:100030000C943F000C943F000C943F000C943F0044
:100040000C943F000C943F000C943F000C943F0034
:100050000C943F0011241FBECFE5D8E0DEBFCDBF1A
:1000600010E0A0E6B0E0E2ECF0E002C005900D92F6
:10007000A036B107D9F70E944B000C945F000C9496
:1000800000001F920F920FB60F9211240F900FBE17
:100090000F901F901895BC98BD98BE98BF98A098D7
:1000A000A198A298A398A498A5988A98929A85B79F
:1000B000826085BF8BB780648BBF7894FFCFF89444
:0200C000FFCF70
:00000001FF
