:100000000C9433000C9401010C945B000C945B0085
:100010000C945B000C945B000C945B000C945B00F4
:100020000C945B000C945B000C945B000C945B00E4
:100030000C945B000C945B000C945B000C945B00D4
:100040000C945B000C945B000C945B000C945B00C4
:100050000C945B0025012A012F01340125012A019E
:100060002F013401720111241FBECFE5D8E0DEBF9D
:10007000CDBF10E0A0E6B0E0E6E0F3E002C00590FE
:100080000D92A036B107D9F720E0A0E6B0E001C09C
:100090001D92A836B207E1F710E0C3E3D0E004C038
:1000A0002197FE010E947B01C233D107C9F70E944C
:1000B00063010C9481010C940000E0E6F0E0805AAA
:1000C0009F4F21E0DC0112962C9380819181019653
:1000D000918380830895BC018091600090916100BC
:1000E000181619060CF078C064307105E4F4FB01B1
:1000F000E05AFF4F8281882349F004C091919923EF
:1001000049F001C0AB01842F861B10C0FB01ED59E3
:10011000FF4FAB014F5F5F4F4430510579F74FEF11
:100120005FEF80E003C04FEF5FEF80E088BB2FE31D
:100130003DE093E0215030409040E1F700C00000E6
:100140009B01215031090AF44AC0F901E05AFF4FDE
:1001500092819923D9F003C092919923D1F0962FDF
:10016000921B98BBAFE3EDE0F3E0A150E040F0401C
:10017000E1F700C00000A0E6B0E0ED91FC9111971E
:100180003197ED93FC93891740F012C0FB01EF59B2
:10019000FF4F2150310900F722C04F3FAFEF5A0700
:1001A00039F0FA01E05AFF4F1282842F952F0895FB
:1001B000981758F42F3FEFEF3E0739F0F901E05A56
:1001C000FF4F1282822F932F0895FB01E05AFF4FB9
:1001D0001282862F972F08958FEF9FEF089518BAF8
:1001E000FFE32DE033E0F15020403040E1F700C064
:1001F0000000E0E6F0E080819181019791838083A7
:10020000E4CF1F920F920FB60F9211242F933F93BA
:100210004F935F936F937F938F939F93AF93BF930E
:10022000EF93FF93CF93DF931F92CDB7DEB789B3E0
:100230008F708983E9818E2F90E088309105C0F41A
:10024000FC01E65DFF4F0C947B0180E090E00E9492
:100250005D000EC081E090E00E945D0009C082E078
:1002600090E00E945D0004C083E090E00E945D0089
:1002700080916600909167000E946B0088BB0F9090
:10028000DF91CF91FF91EF91BF91AF919F918F91AE
:100290007F916F915F914F913F912F910F900FBE82
:1002A0000F901F90189584B38E6084BB84B38067D1
:1002B00084BB8AB3847F8ABB8BB780648BBF88E0A2
:1002C00085BF789408950E9453018FEF87BBC4E0E7
:1002D000D0E0D0936700C093660080E090E00E9479
:1002E0005D00F7CFE0E6F0E0118210821282138207
:1002F000148215820895EE0FFF1F0590F491E02DF2
:060300000994F894FFCF00
:00000001FF
