S0170000456C657661746F7250726F6A6563742E73726563F4
S11300000C9433000C9425010C945B000C945B005D
S11300100C945B000C945B000C945B000C945B00F0
S11300200C945B000C945B000C945B000C945B00E0
S11300300C945B000C945B000C945B000C945B00D0
S11300400C945B000C945B000C945B000C945B00C0
S11300500C945B00430148014D01520143014801E6
S11300604D015201780111241FBECFE5D8E0DEBF57
S1130070CDBF10E0A0E6B0E0E6E1F3E002C00590F9
S11300800D92A436B107D9F720E0A4E6B0E001C090
S11300901D92AA36B207E1F710E0C3E3D0E004C032
S11300A02197FE010E948301C233D107C9F70E9440
S11300B0BE000C9489010C940000E5E6F0E08B5935
S11300C09F4F21E0DC0111962C9380818F5F808308
S11300D00895A0916500AA2309F441C084309105D4
S11300E00CF046C09C012F5F3F4FF901EB59FF4FC5
S11300F060E070E040E0519151114F5F611571056E
S113010009F4B9012F5F3F4F25303105A1F702975C
S11301108AF0FC01E959FF4F20E030E0529151117F
S11301204F5F2115310519F49C012F5F3F4F019753
S1130130AAF702C020E030E0A150A0936500442358
S113014039F0FB01EB59FF4F1182862F972F089549
S1130150F901EB59FF4F1182822F932F08958FEFEE
S11301609FEF0895A150A093650020E030E0F0CF08
S11301700297C2F360E070E040E0CBCF81B381BB73
S1130180B89A81E090E0909361008093600083E0EE
S113019090E00E945D0082E090E00E945D0084E0B7
S11301A090E00E945D0080916000909161000E9447
S11301B069009093610080936000029709F4C09AEB
S11301C08BB780648BBF88E085BF789488B388BB85
S11301D0FDCF811104C08BB38A608BBB05C0813015
S11301E019F48BB38C608BBB2FE38DE093E021502B
S11301F080409040E1F700C000008BB31BBA089523
S1130200FF920F931F93CF93DF93861B970BF92EC7
S1130210F094FF1CFF24FF1C8C01992324F4002775
S11302201127081B190B101611064CF4C0E0D0E07E
S11302308F2D0E94E90021960C171D07C9F7DF9145
S1130240CF911F910F91FF9008951F920F920FB6B7
S11302500F9211242F933F934F935F936F937F9348
S11302608F939F93AF93BF93EF93FF93E0916400B9
S11302708E2F90E0FC013197E830F105B8F4E65D8B
S1130280FF4F0C94830181E090E00E945D000EC05A
S113029082E090E00E945D0009C083E090E00E944B
S11302A05D0004C084E090E00E945D0080916200E3
S11302B0813069F480916000909161000E9469002E
S11302C0BC0180916000909161000E940001FF9147
S11302D0EF91BF91AF919F918F917F916F915F91BA
S11302E04F913F912F910F900FBE0F901F90189533
S11302F0E5E6F0E01082118212821382148280B348
S1130300809364000895EE0FFF1F0590F491E02D93
S10903100994F894FFCFEC
S107031601000100DD
S9030000FC
