:100000000C942A000C9434000C9434000C943400AA
:100010000C9434000C9434000C9434000C94340090
:100020000C9434000C9434000C9434000C94340080
:100030000C9434000C9434000C9434000C94340070
:100040000C9434000C9434000C9434000C94340060
:100050000C94340011241FBECFE5D8E0DEBFCDBF25
:100060000E9490000C94AA000C940000811104C01E
:100070008BB38A608BBB05C0813019F48BB38C6065
:100080008BBB2FE38DE093E0215080409040E1F75F
:1000900000C000008BB31BBA0895FF920F931F930B
:1000A000CF93DF93861B970BF92EF094FF1CFF2450
:1000B000FF1C8C01992324F400271127081B190B1E
:1000C000101611064CF4C0E0D0E08F2D0E943600CF
:1000D00021960C171D07C9F7DF91CF911F910F9142
:1000E000FF9008958BB380658BBB2FE78AE196E084
:1000F000215080409040E1F700C000008BB31BBA54
:1001000008958BB380668BBB2FE78AE196E0215080
:1001100080409040E1F700C000008BB31BBA089507
:100120008AB38E608ABB8AB380678ABB62E070E064
:1001300081E090E00E944D000E9472002FE38DE06C
:1001400093E0215080409040E1F700C000000E9401
:080150008100FFCFF894FFCFFE
:00000001FF
