S0170000456C657661746F7250726F6A6563742E73726563F4
S11300000C942A000C9434000C9434000C943400A6
S11300100C9434000C9434000C9434000C9434008C
S11300200C9434000C9434000C9434000C9434007C
S11300300C9434000C9434000C9434000C9434006C
S11300400C9434000C9434000C9434000C9434005C
S11300500C94340011241FBECFE5D8E0DEBFCDBF21
S11300600E9471000C947B000C940000811104C068
S11300708BB38A608BBB05C0813019F48BB38C6061
S11300808BBB2FE38DE093E0215080409040E1F75B
S113009000C000008BB31BBA0895FF920F931F9307
S11300A0CF93DF93861B970BF92EFF1CFF24FF1CB5
S11300B08C01992324F400271127081B190B10160F
S11300C011064CF4C0E0D0E08F2D0E94360021963A
S11300D00C171D07C9F7DF91CF911F910F91FF9066
S11300E008958AB38E608ABB62E070E081E090E09C
S10D00F00E944D00FFCFF894FFCFEB
S9030000FC
