:100000000C942A000C9464000C9447000C94470054
:100010000C9447000C9447000C9447000C94470044
:100020000C9447000C9447000C9447000C94470034
:100030000C9447000C9447000C9447000C94470024
:100040000C9447000C9447000C9447000C94470014
:100050000C94470011241FBECFE5D8E0DEBFCDBF12
:1000600010E0A0E6B0E0E8EAF1E002C005900D92F1
:10007000A036B107D9F720E0A0E6B0E001C01D929C
:10008000AA36B207E1F70E949C000C94D2000C94AF
:10009000000020916800309169002817390799F015
:1000A000232B21F4909369008093680020916000D5
:1000B000309161002817390731F0232B21F49093F8
:1000C00061008093600008951F920F920FB60F9207
:1000D00011242F933F934F935F936F937F938F934D
:1000E0009F93AF93BF93EF93FF9381E090E00E94C3
:1000F000490082E090E00E94490083E090E00E9485
:10010000490084E090E00E944900FF91EF91BF9187
:10011000AF919F918F917F916F915F914F913F919F
:100120002F910F900FBE0F901F901895369A369909
:10013000FECF84B195B10895BC9ABD9ABE9ABF9A7C
:10014000A098A198A298A398A498A598D09A8A98C4
:10015000929A85B7826085BF8BB780648BBF86B16A
:10016000876086B987B1806C87B987B187B9379ABC
:10017000359A7894D1E0CFE080E00E9496008D3BE4
:10018000924010F08C2F01C08D2F8295807F88BB0C
:100190008FE39DE023E0815090402040E1F700C0D4
:0801A0000000EACFF894FFCF44
:00000001FF
