S0170000456C657661746F7250726F6A6563742E73726563F4
S11300000C9433000C9451010C945B000C945B0031
S11300100C945B000C945B000C945B000C945B00F0
S11300200C945B000C945B000C945B000C945B00E0
S11300300C945B000C945B000C945B000C945B00D0
S11300400C945B000C945B000C945B000C945B00C0
S11300500C945B0075017A017F01840175017A01BA
S11300607F018401A80111241FBECFE5D8E0DEBFC3
S1130070CDBF10E0A0E6B0E0E2E7F3E002C00590F7
S11300800D92A236B107D9F720E0A2E6B0E001C094
S11300901D92AA36B207E1F710E0C3E3D0E004C032
S11300A02197FE010E94B101C233D107C9F70E9412
S11300B0CF000C94B7010C940000E2E6F0E08E59F6
S11300C09F4F21E0DC0112962C938081918101964F
S11300D0918380830895EF92FF920F931F93CF93A0
S11300E0DF93E0906200F09063001E141F04ECF5AF
S11300F09C01FC01EE59FF4FEC012497DF018901BB
S1130100AC0133239CF012966C911297662371F024
S113011081E0E81AF108F0926300E0926200F901CC
S1130120EE59FF4F1282822F912F21C04430510586
S11301308CF46281662371F081E0E81AF108F09290
S11301406300E0926200FA01EE59FF4F1282842F9D
S1130150952F0DC0215031090196319611972C1716
S11301603D0769F68FEF9FEF02C08FEF9FEFDF919E
S1130170CF911F910F91FF90EF90089584B38E60FB
S113018084BB84B3806784BB8AB3847F8ABB8BB708
S113019080648BBF85B7836085BF789408950E947F
S11301A0BE008FEF87BBFFCF811104C085B38A6087
S11301B085BB05C0813019F485B38C6085BB2FE302
S11301C08DE093E0215080409040E1F700C00000B2
S11301D085B315BA0895FF920F931F93CF93DF93BE
S11301E0861B970BF92EF094FF1CFF24FF1C8C0137
S11301F0992324F400271127081B190B1016110644
S11302004CF4C0E0D0E08F2D0E94D40021960C174E
S11302101D07C9F7DF91CF911F910F91FF900895AA
S113022085B3806585BB2FE78AE196E02150804045
S11302309040E1F700C0000085B315BA089585B376
S1130240806685BB2FE78AE196E02150804090408C
S1130250E1F700C0000085B315BA0895CF93DF938A
S1130260EC0110926000BC018091680090916900DB
S11302700E94EB00D0936900C093680081E08093F2
S113028060000E9410012FE38DE093E02150804034
S11302909040E1F700C000000E941F01DF91CF9160
S11302A008951F920F920FB60F9211242F933F932C
S11302B04F935F936F937F938F939F93AF93BF936A
S11302C0EF93FF93CF93DF931F92CDB7DEB789B33C
S11302D08F708983E9818E2F90E088309105C0F476
S11302E0FC01E65DFF4F0C94B10180E090E00E94B8
S11302F05D000EC081E090E00E945D0009C082E0D4
S113030090E00E945D0004C083E090E00E945D00E4
S113031080916000813041F480916800909169007F
S11303200E946B000E942E010F90DF91CF91FF91EC
S1130330EF91BF91AF919F918F917F916F915F9159
S11303404F913F912F910F900FBE0F901F901895D2
S1130350E2E6F0E011821082128213821482158286
S11303600895EE0FFF1F0590F491E02D0994F89481
S1050370FFCFB9
S1050372010084
S9030000FC
